:1000000011E0A0E0B1E0E4E7F1E002C005900D925C
:10001000A431B107D9F70E941C0084B1806284B971
:100020008AB18F7E8AB98BB180618BB9089595B101
:1000300080E2892785B90895CF93DF93CDB7DEB7E6
:1000400063970FB6F894DEBF0FBECDBF0E940D00C0
:1000500080E895E20E944C0083E1E0E0F1E0DE01FF
:10006000119601900D928A95E1F763E170E0CE015F
:1000700001960E9484000E9417002FEF81EE94E009
:10008000215080409040E1F700C000000E9480179E
:1000900081E0089580E00895CF93DF93EC010E9402
:1000A0004A00882321F00E944800811129C0CE0116
:1000B000A0E0B0E0880F991FAA1FBB1F880F991FEF
:1000C000AA1FBB1F9C01AD01220F331F441F551FE8
:1000D000220F331F441F551F60E074E284EF90E04D
:1000E0000E949800215031093093C5002093C4002C
:1000F00088E18093C10086E08093C20080E001C067
:1001000081E0DF91CF910895AC0120E030E00CC098
:100110009091C00095FFFCCFFA01E20FF31F908190
:100120009093C6002F5F3F4F2617370788F3089537
:10013000A1E21A2EAA1BBB1BFD010DC0AA1FBB1FEB
:10014000EE1FFF1FA217B307E407F50720F0A21B5D
:10015000B30BE40BF50B661F771F881F991F1A94CA
:1001600069F760957095809590959B01AC01BD01F4
:04017000CF0108951E
:100174005245534554204150504C49434154494FF2
:040184004E0A00001F
:0E2F00008FE39CE90197F1F700C00000F9CFC4
:00000001FF
