S0150000426F6F746C6F616465724156522E737265631B
S113700011E0A0E0B1E0ECE0F2E702C005900D92DF
S1137010A231B107D9F721E0A2E1B1E001C01D928C
S1137020A631B207E1F70E941E388FEF87B98AB103
S11370308F7E8AB98BB180618BB90895CF93DF932A
S1137040CDB7DEB762970FB6F894DEBF0FBECDBFE3
S113705080E895E20E9466380E9444380E94153800
S113706082E1E0E0F1E0DE01119601900D928A9553
S1137070E1F728EE33E040E050E062E170E0CE0159
S113708001960E949E38FFCF10928000E1E8F0E064
S1137090108280E398EF9093850080938400808130
S11370A082608083EFE6F0E0808181608083789461
S11370B008956091120170911301809114019091CF
S11370C01501089581E0089580E00895CF93DF933A
S11370D0EC010E946438882321F00E9462388111F7
S11370E029C0CE01A0E0B0E0880F991FAA1FBB1FE2
S11370F0880F991FAA1FBB1F9C01AD01220F331FCC
S1137100441F551F220F331F441F551F60E074E2B4
S113711084EF90E00E94E438215031093093C50097
S11371202093C40088E18093C10086E08093C2006C
S113713080E001C081E0DF91CF9108956F927F924A
S11371408F929F92AF92BF92CF92DF92EF92FF9273
S11371500F931F93CF93DF938C013B0149015A0195
S11371600E9459386B017C01C0E0D0E018C00E9435
S11371705938DC01CB018C199D09AE09BF09881669
S11371809906AA06BB0680F08091C00085FFEFCF68
S1137190F801EC0FFD1F80818093C6002196C6156F
S11371A0D70590F380E001C082E0DF91CF911F9179
S11371B00F91FF90EF90DF90CF90BF90AF909F9092
S11371C08F907F906F900895A1E21A2EAA1BBB1B8B
S11371D0FD010DC0AA1FBB1FEE1FFF1FA217B3079F
S11371E0E407F50720F0A21BB30BE40BF50B661FB5
S11371F0771F881F991F1A9469F760957095809579
S10F720090959B01AC01BD01CF010895E5
S113720C424F4F544C4F41444552205245534554E0
S105721C0A0062
S90370008C
