:1070000011E0A0E0B1E0E4EBF7E702C005900D92DB
:10701000A231B107D9F721E0A2E1B1E001C01D9290
:10702000A231B207E1F70E94DC3ADC0140E050E017
:1070300080E090E01AC0FD01E40FF51F208130E0F0
:10704000322F22278227932720E00BC0992334F484
:10705000880F991F35E08327905802C0880F991F29
:107060002F5F283098F34F5F5F4F4617570718F38D
:107070000895CF93DF9300D0CDB7DEB785E5898340
:1070800082E28A8320E032E14AE750E062E070E089
:10709000CE0101960E94523B0F900F90DF91CF914D
:1070A0000895CF93DF9300D0CDB7DEB785E5898310
:1070B00081E18A8320E032E14AE750E062E070E05B
:1070C000CE0101960E94523B0F900F90DF91CF911D
:1070D00008951F93CF93DF93EC011981612F70E026
:1070E0006B5F7F4F0E9415389827892798272B813F
:1070F0003C813227232732273C832B83FE01EB5729
:10710000FF4F408151818417950751F4BE016B5F99
:107110007F4F412F50E0C9010E94B43980E001C087
:1071200081E0DF91CF911F9108950F931F93CF932B
:10713000DF93CDB7DEB7C458D1090FB6F894DEBFE0
:107140000FBECDBF8C01DC0111966C9170E06B5FBE
:107150007F4F0E941538982789279827F8012381A7
:1071600034813227232732273483238325813681B4
:107170008217930709F0A8C00E94393885E58983F2
:10718000D8011396ED91FC9114979F01220F232FA4
:10719000221F330B31952A83B0E82B9F90011124D5
:1071A000D80112968C91883621F1893621F08736E4
:1071B00009F08CC03CC08FEF8A83E491EB8320E020
:1071C00032E14AE750E065E070E0CE0101960E94AE
:1071D000523B81117DC081C0F901E80FF91FE49194
:1071E000A3E0B0E0AC0FBD1FA80FB91FEC93019650
:1071F00002C080E090E08038910574F362E870E0AE
:10720000CE0101960E941538CD57DF4F99838883B0
:10721000C358D04020E032E14AE750E064E870E033
:10722000CE0101960E94523B811154C056C0BFEF5F
:10723000E6E7F1E0B150E040F040E1F700C00000C7
:1072400000E010E03BC00A8380E090E011C0F8014C
:10725000F695FE2FEE27F795E795E80FF91FE491D5
:10726000A3E0B0E0AC0FBD1FA80FB91FEC930196CF
:107270008038910564F362E870E0CE0101960E94C7
:107280001538CD57DF4F99838883C358D04020E00D
:1072900032E14AE750E064E870E0CE0101960E94D6
:1072A000523B811119C02FE785EB91E021508040BE
:1072B0009040E1F700C000000F5F1F4F083C110530
:1072C0000CF4C1CF80E009C081E007C081E005C0B7
:1072D00081E003C081E001C081E0CC57DF4F0FB6F1
:1072E000F894DEBF0FBECDBFDF91CF911F910F91FC
:1072F0000895CF93DF93EC01698170E06B5F7F4F5E
:107300000E9415389827892798272B813C8132279E
:10731000232732273C832B832D813E8182179307BD
:1073200071F00E94513881E010C0CE019695982FDF
:107330008827979587950E94AB39219602C0C0E0B7
:10734000D0E0C431D1058CF380E0DF91CF91089576
:1073500087B78170089523E027BFFC01E8950E945C
:10736000A8398111FCCF08954F925F926F927F925E
:107370008F929F92AF92BF92CF92DF92EF92FF9245
:107380000F931F93CF93DF934C01EB014FB6F8940B
:107390005A018FE7A80EB11CAA0CAB2CAA1CBB0883
:1073A000B19441504F77542EC12CD12C6894EE24C7
:1073B000E7F8F12C3CC086011695102F0027179591
:1073C0000795080D191DC8010E94AB39C501019729
:1073D0006816790629F4E52CF12CEFEFEE1AFE0A77
:1073E00020E030E016C06881AE014E5F5F4F8981BA
:1073F00090E0982F8827860F911DF901E00FF11F6B
:1074000061E00C0160935700E89511242E5F3F4F17
:10741000EA012E153F0538F385E087BFF801E895AE
:107420000E94A8398111FCCFFFEFCF1ADF0A360185
:10743000CA14DB0408F4BFCF81E187BFE8954FBED3
:10744000DF91CF911F910F91FF90EF90DF90CF9040
:10745000BF90AF909F908F907F906F905F904F9074
:1074600008958FEF87B98AB18F7E8AB98BB1806119
:107470008BB9089598B181E0892788B90895CF9391
:10748000DF93CDB7DEB7C758D1090FB6F894DEBF8A
:107490000FBECDBFFE01319687E8DF011D928A95B0
:1074A000E9F720E23EE440E050E061E070E0CE0128
:1074B00001960E94853B4C9902C00C940000898182
:1074C000853579F720E032E14AE750E061E070E08D
:1074D000CE0102960E94853B6A8170E06B5F7F4F10
:1074E00020E032E14AE750E0CE0103960E94853B5E
:1074F0008B81873709F445C020F48756833098F193
:107500004DC0863909F04AC08A818038F1F090E098
:10751000FC01369621E030E02C0F3D1FE20FF31FF7
:10752000208130E0322F22270596E1E0F0E0EC0FD9
:10753000FD1FE80FF91F8081A901482BCA01CA5716
:10754000DF4F99838883C658D0400E943A3ACE01D3
:1075500001960E946938811103C00E9439381EC00B
:107560000E9451381BC00E943A3ACE0101960E94F7
:107570009538811103C00E94393810C00E945138DB
:107580000DC00E943A3ACE0101960E9479398823B3
:1075900019F00E94513802C00E943938FE0131961C
:1075A00087E8DF011D928A95E9F78FE99FE001974F
:1075B000F1F700C0000075CFCF93DF93CDB7DEB7F2
:1075C00062970FB6F894DEBF0FBECDBF80E096E99C
:1075D0000E941A3B0E94033B0E94313A82E1E0E0A4
:1075E000F1E0DE01119601900D928A95E1F720E11C
:1075F00037E240E050E062E170E0CE0101960E9487
:10760000523B0E943F3A10928000E1E8F0E0108285
:107610001092850010928400808181608083808137
:1076200082608083808184608083089581E00895F2
:1076300080E00895CF93DF93EC010E94183B8823EC
:1076400021F00E94163B811129C0CE01A0E0B0E0DC
:10765000880F991FAA1FBB1F880F991FAA1FBB1F46
:107660009C01AD01220F331F441F551F220F331FF2
:10767000441F551F60E074E284EF90E00E94B83B25
:10768000215031093093C5002093C40088E18093D4
:10769000C10086E08093C20080E001C081E0DF91FC
:1076A000CF910895EF92FF920F931F93CF93DF93A3
:1076B000DC017B0189019A01E0E0F0E019C04F5F35
:1076C0005F4F6F4F7F4F041715072607370720F4CA
:1076D00014C040E050E0BA019091C00095FFEFCF98
:1076E000CD018E0F9F1FEC0188818093C6003196DB
:1076F000EE15FF0570F380E001C082E0DF91CF91CD
:107700001F910F91FF90EF900895EF92FF920F93CA
:107710001F93CF93DF93DC017B0189019A01E0E0A5
:10772000F0E019C04F5F5F4F6F4F7F4F0417150791
:107730002607370720F414C040E050E0BA019091CA
:10774000C00099237CF7CD018E0F9F1F4091C6008A
:10775000EC0148833196EE15FF0570F380E001C01F
:1077600082E0DF91CF911F910F91FF90EF900895EC
:10777000A1E21A2EAA1BBB1BFD010DC0AA1FBB1F35
:10778000EE1FFF1FA217B307E407F50720F0A21BA7
:10779000B30BE40BF50B661F771F881F991F1A9414
:1077A00069F760957095809590959B01AC01BD013E
:0477B000CF01089568
:1077B400424F4F544C4F4144455220524553455437
:0277C4000A00B9
:040000030000700089
:00000001FF
